{
  "_format": "hh-sol-artifact-1",
  "contractName": "Test",
  "sourceName": "contracts/Test.sol",
  "abi": [
    {
      "inputs": [
        {
          "internalType": "uint256",
          "name": "tokenId",
          "type": "uint256"
        },
        {
          "internalType": "address",
          "name": "poolAddress",
          "type": "address"
        }
      ],
      "name": "isRare",
      "outputs": [
        {
          "internalType": "bool",
          "name": "",
          "type": "bool"
        }
      ],
      "stateMutability": "view",
      "type": "function"
    }
  ],
  "bytecode": "0x608060405234801561001057600080fd5b5061023b806100206000396000f3fe608060405234801561001057600080fd5b506004361061002b5760003560e01c8063e738690614610030575b600080fd5b61007c6004803603604081101561004657600080fd5b8101908080359060200190929190803573ffffffffffffffffffffffffffffffffffffffff169060200190929190505050610094565b60405180821515815260200191505060405180910390f35b6000808383604051602001808381526020018273ffffffffffffffffffffffffffffffffffffffff1660601b81526014019250505060405160208183030381529060405280519060200120905060026100ec8561012a565b0260010160ff167fffffffffffffffffffffffffffffffffffffffffffffffffffffffffffffffff8161011b57fe5b048160001c1091505092915050565b600080821161013857600080fd5b700100000000000000000000000000000000821061015e57608082901c91506080810190505b68010000000000000000821061017c57604082901c91506040810190505b640100000000821061019657602082901c91506020810190505b6201000082106101ae57601082901c91506010810190505b61010082106101c557600882901c91506008810190505b601082106101db57600482901c91506004810190505b600482106101f157600282901c91506002810190505b60028210610200576001810190505b91905056fea2646970667358221220d95250a383ccae3b7ed40c5525778d304bd121f570621c75cc1361a147f6d08e64736f6c63430007030033",
  "linkReferences": {},
  "deployedLinkReferences": {}
}